:020000040800F2
:1000000018080020610200088F130008171200086A
:100010008D130008930400089516000800000000E6
:10002000000000000000000000000000FF150008B4
:10003000E504000800000000AD15000801160008E6
:100040007B0200087B0200087B0200087B0200089C
:100050007B0200087B0200087B0200087B0200088C
:100060007B0200087B0200087B0200087B0200087C
:100070007B0200087B0200087B0200087B0200086C
:100080007B0200087B0200087B0200087B0200085C
:100090007B0200087B0200087B020008FD040008C8
:1000A0007B0200087B0200087B0200087B0200083C
:1000B0007B0200087B0200087B0200087B0200082C
:1000C0007B0200087B0200087B0200087B0200081C
:1000D0007B0200087B0200087B0200087B0200080C
:1000E000E70400087B0200087B0200087B0200088E
:1000F0007B0200087B0200087B0200087B020008EC
:100100007B0200087B0200087B0200087B020008DB
:100110007B0200087B0200087B0200087B020008CB
:100120007B0200087B0200087B0200087B020008BB
:100130007B02000800000000000000007B020008B5
:100140007B0200087B0200087B0200087B0200089B
:100150007B0200087B0200087B0200087B0200088B
:100160007B0200087B0200087B0200087B0200087B
:100170007B0200087B020008000000007B020008F0
:100180007B0200087B02000800F002F800F03EF855
:100190000AA090E8000C82448344AAF10107DA45E2
:1001A00001D100F033F8AFF2090EBAE80F0013F0F6
:1001B000010F18BFFB1A43F001031847681A00002B
:1001C000881A0000103A24BF78C878C1FAD85207BC
:1001D00024BF30C830C144BF04680C6070470000C1
:1001E0000023002400250026103A28BF78C1FBD840
:1001F000520728BF30C148BF0B6070471FB501F0E0
:1002000013FC00F0DAF81FBD10B510BD00F008F9BE
:100210001146FFF7F3FF01F099FA00F026F903B455
:10022000FFF7F2FF03BC00F02DF900000B49D1F8F5
:1002300000C04A685CF8043B1068184442F8040B9C
:100240008C4528BFA1F1DC0C8A4228BFA1F1DC0259
:10025000C1F800C04A6020F000407047B0010020A3
:100260000948804709480047FEE7FEE7FEE7FEE74A
:10027000FEE7FEE7FEE7FEE7FEE7FEE70448054986
:10028000054A064B704700008516000889010008E2
:10029000180200201808002018040020180400206C
:1002A00053EA020C00F069802DE9F04B4FF0000694
:1002B000002B1FBFB3FA83F503FA05F424FA05F601
:1002C0005E4012BF1643B2FA82F502FA05F4C5F198
:1002D00020051EBF22FA05FC44EA0C04203556EA2C
:1002E000044C4FEA144418BF641C4FF000084FF050
:1002F0000009904271EB030C39D3002919BFB1FA00
:1003000081F701FA07F6B0FA80F700FA07F6C7F1AD
:1003100020071EBF20FA07FC46EA0C062037B6FB72
:10032000F4FCA7EB0507103F07F01F0BCBF12006ED
:100330000CFA0BFB2CFA06F644BFB3460026202F1E
:10034000A4BF5E464FF0000B5BEA060C08BF4FF0FF
:10035000010B19EB0B09ABFB027C48EB0608C01B39
:1003600006FB02CC0BFB03CC71EB0C01C1E70B4687
:10037000024641464846BDE8F08B13B54FF00000F9
:100380004FF00001AFF30080BDE81C407047000053
:100390000B4910B5A1F17C020A4CC2E93712372192
:1003A00006E000EB104342F82130074B00FB03400E
:1003B0000B1EA1F10101F4DC10BD0120E8E70000F3
:1003C00050010020E119D666CD0D01004FF000026A
:1003D00000B5134694469646203922BFA0E80C503B
:1003E000A0E80C50B1F12001BFF4F7AF090728BF16
:1003F000A0E80C5048BF0CC05DF804EB890028BF92
:1004000040F8042B08BF704748BF20F8022B11F0BA
:10041000804F18BF00F8012B704770477047704736
:10042000754600F02BF8AE4605006946534620F0AD
:100430000700854618B020B5FFF720FFBDE8204033
:100440004FF000064FF000074FF000084FF0000B90
:1004500021F00701AC46ACE8C009ACE8C009ACE843
:10046000C009ACE8C0098D46704710B50446AFF32B
:1004700000802046BDE81040FFF7D1BE004870471D
:10048000B801002001491820ABBEFEE7260002009B
:100490007047FEE7064A10B553680649064C0968DE
:1004A000B1FBF4F141435068C01A8842FBD310BD40
:1004B000001000E01800002040420F0007480168CB
:1004C000C9010AD4016841F080710160044800212B
:1004D0004160016841F0010101607047FCED00E0FE
:1004E000001000E0704710B54FF4804000F04AF86B
:1004F000BDE810404FF4004000F044B810B5402073
:1005000000F040F8BDE81040802000F03BB872B623
:10051000FEE7000070B5044600F042F90546601C95
:1005200002D004480078044400F03AF9401BA0428D
:10053000FAD370BD0C00002010B51149032401232B
:10054000CA78B0F5804F0CD0B0F5004F0FD04028DE
:1005500013D0802810D102200870002A0CD18860A6
:1005600009E000200870002A06D18C6003E00B70BF
:10057000002A01D18B60CB7010BD0C7010BD000043
:1005800000000020044910B50A68024202D0086049
:10059000FFF7D2FF10BD0000143C01402DE9F84FD9
:1005A000DFF8BCA1002201250AF1040B03264FF05D
:1005B0000F090BF1040E00BF0B6805FA02F423408B
:1005C000A34270D10F7907F00307012F01D0022F4A
:1005D00016D187684FEA420806FA08FC27EA0C079A
:1005E000D1F80CC00CFA08FC4CEA070CC0F808C0A3
:1005F0004768A7430C79C4F3001494403C4344601B
:100600000C79E443A4070AD0C4684FEA420C06FA06
:100610000CF7BC438F6807FA0CF72743C7600C79C7
:1006200004F00304022C12D1D40800EB840CDCF893
:1006300020405707FF0E09FA07F824EA0804D1F80A
:10064000108008FA07F848EA0408CCF8208004680B
:100650004FEA420C06FA0CF7BC430F7907F0030788
:1006600007FA0CF7274307604C6814F4403F70D03A
:100670003C4C276847F480472760246822F0030732
:1006800004F480440094384C07EB040CDCF8084870
:1006900097074FEA177809FA08F7BC43334FB84277
:1006A00002D1002724E054E0314FB84201D10127A4
:1006B0001EE0304FB84201D1022719E02E4FB84258
:1006C00001D1032714E02D4FB84201D104270FE0D8
:1006D0002B4FB84201D105270AE02A4FB84201D179
:1006E000062705E0284FB84201D1072700E0082778
:1006F00007FA08F72743CCF80878DAF8004057469D
:10070000D1F804C09C435FEACC3C00D51C433C605C
:10071000DBF800405F46D1F804C09C435FEA8C3CA4
:1007200000D51C433C60DEF800407746D1F804C099
:100730009C435FEACC2C00D51C433C60084F0C372F
:100740003C68D1F804C09C435FEA8C2C00D51C4364
:100750003C60521C102AFFF42FAFBDE8F88F000058
:10076000003C01404438024000300140000002409B
:100770000004024000080240000C02400010024049
:100780000014024000180240001C024000690840AA
:1007900000D0012070470AB1816170470904FBE76E
:1007A00001488068704700000C0000200248816802
:1007B00002781144816070470C0000200B4810B58E
:1007C000016841F400710160016841F480610160D9
:1007D000016841F480710160032000F06FF80F2080
:1007E00000F006F800F024F8002010BD003C0240A4
:1007F00070B50D4D04464FF47A712878B1FBF0F0D6
:100800000A490968B1FBF0F000F0F1FC48B9102C7E
:1008100007D200222146501E00F030F800206C6004
:1008200070BD012070BD00000C00002018000020E9
:100830000A4808B5016841F480410160006800F48D
:10084000804000900548001F016841F08051016020
:10085000006800F08050009008BD0000443802405D
:10086000002809DB00F01F020121914040098000AF
:1008700000F1E020C0F8001170470000F0B40E4B0A
:100880001B680C46C3F30223C3F10705042D00D9EE
:100890000425191D072901D2002300E0DB1E0126D3
:1008A00006FA05F1491E214099409E40761E1640E9
:1008B0003143F0BC00F0EFBE0CED00E0064900F063
:1008C000070208684FF6FF03184040EA0220034A77
:1008D00010430860704700000CED00E00000FA05CE
:1008E0002DE9F843054600684FF00109C1074FF0B4
:1008F000000601D1400727D5DFF80C81C8F86860F1
:10090000FFF74EFF0746414C05E000BFFFF748FFE9
:10091000C01B022857D820680001F7D468688101FD
:10092000287A41EA0070394984310860C8F8689033
:10093000FFF736FF074604E0FFF732FFC01B02282F
:1009400041D820680001F7D52878800752D52F4874
:100950004030016841F08051016000682C4C00F08B
:1009600080500090206840F480702060FFF718FFEE
:10097000074604E0FFF714FFC01B022823D82068B5
:10098000C005F7D5214C7034206810F4407020D099
:10099000A98901F4407181421BD020681D4920F4CF
:1009A0004070C1F800900E6020602068C00710D031
:1009B000FFF7F6FE064641F2883707E0FFF7F0FE44
:1009C000801BB84202D90320BDE8F8832068800765
:1009D000F4D5E9680D48C1F301220830032A0BD091
:1009E000016821F4F81101602068A989C1F30B01A5
:1009F000084320600020E7E70268074B22F4F81262
:100A000019400A430260EFE7000047420038024005
:100A100000700040400E4742FFFCFF0F2DE9F047F9
:100A20000E46050065D0DFF81481D8F80000F7B253
:100A300000F00700B04207D288F80070D8F8000034
:100A400000F00700B04254D128683D4C810712D510
:100A5000400703D5206840F4E05020602878000764
:100A600003D5206840F4604020602068A96820F029
:100A7000F000084320602878C0072DD0304968680E
:100A80000839012812D0022813D0032811D0096890
:100A9000890700292DDA216821F003010143216033
:100AA000FFF77EFE814641F2883A0EE0096889032D
:100AB000EFE709688901ECE7FFF772FEA0EB090197
:100AC000514502D90320BDE8F0872068696800F02D
:100AD0000C00B0EB810FEFD1D8F80010404601F0C8
:100AE0000701B14207D90770006800F00700B04263
:100AF00001D00120E7E72878400705D52068E9689C
:100B000020F4E050084320602878000706D52068CC
:100B1000296920F4604040EAC100206000F018F824
:100B20002168084AC1F30311515CC84006490860B6
:100B300006480068FFF75CFE0020C4E7003C024066
:100B400008380240131C0008180000201000002084
:100B5000154810B5006810F00C02144813D0144961
:100B6000042A0FD0082A0ED10F4C241F22682368B4
:100B700002F03F025B0207D52068C0F38810A0FB9B
:100B8000010106E0084610BD2168C1F38811A1FBF0
:100B900000010023FFF784FB2168C1F30141491CD8
:100BA0004900B0FBF1F010BD083802400024F40009
:100BB00040787D012DE9F84F04006ED02078DFF8F1
:100BC0004C93C007A9F104054AD009F1040001685B
:100BD000C1F38101012908D00068C0F38100022817
:100BE0000AD1D9F80000400206D52868800337D51D
:100BF00060680028E1D033E06068B0F5803F10D035
:100C0000B0F5A02F286810D020F480302860286824
:100C100020F4802028606068A8B1FFF7C1FD064677
:100C20000DE0286840F48030F4E740F4802028602C
:100C3000F7E700BFFFF7B4FD801B642873D828686E
:100C40008003F7D50CE0FFF7ABFD064605E000BFDB
:100C5000FFF7A6FD801B6428F0D828688003F7D42E
:100C60002078DFF8AC8280074FF0000A3ED5A74815
:100C7000001D016811F00C0F08D00068C0F381005E
:100C800002280BD1D9F80000400207D42868800759
:100C900016D5E068012800D112E033E1E068B8B170
:100CA0000120C8F80000FFF77BFD064605E000BF05
:100CB000FFF776FD801B0228C0D828688007F7D58B
:100CC0002868216920F0F80040EAC10028600DE0A2
:100CD000C8F800A0FFF764FD064604E0FFF760FDDA
:100CE000801B02281FD828688007F7D420780007C7
:100CF00022D5864F87486169703771B10121016043
:100D0000FFF74EFD064604E0FFF74AFD801B022870
:100D100009D838688007F7D50EE0C0F800A0FFF7C3
:100D20003FFD064605E082E0FFF73AFD801B022802
:100D30007DD838688007F7D42078400768D5DFF879
:100D4000CCB100270BF13C0BDBF80000C0000BD44A
:100D5000DBF8001041F08051CBF80010DBF8000008
:100D6000012700F0805000906B4E3068C00510D411
:100D7000306840F480703060FFF712FD009005E0AD
:100D8000FFF70EFD0099401A022850D83068C005C0
:100D9000F6D55E4EA0686C3601280FD00528306865
:100DA00010D020F001003060306820F00400306086
:100DB000A068B8B1FFF7F4FC00900FE0306840F095
:100DC0000100F4E740F004003060F7E7FFF7E8FCCB
:100DD0000099411A41F28830814266D83068800714
:100DE000F4D50EE0FFF7DCFC009007E0FFF7D8FC3D
:100DF0000099411A41F28830814256D83068800704
:100E0000F4D42FB1DBF8001021F08051CBF80010A2
:100E1000A069C8B33D49091D0968C1F381010229D0
:100E20004AD00228504607D0C8F8600000E03CE0F5
:100E3000FFF7B6FC04463BE04746C8F86000FFF702
:100E4000AFFC064605E000BFFFF7AAFC801B0228A6
:100E50002BD828688001F7D4D4E907010843A16A98
:100E60002E4A490802EB0141626A41EA82110843B5
:100E700094F82C1040EA0161C9F80010012038668E
:100E8000FFF78EFC044606E03EE000BFFFF788FC5B
:100E9000001B022809D828688001F7D534E000BF7C
:100EA000FFF77EFC001B022802D90320BDE8F88F63
:100EB00028688001F4D427E00128F7D0D9F8000091
:100EC000E26900F4800191421CD1226A00F03F01E6
:100ED000914217D147F6C071626A0140B1EB821F9F
:100EE00010D1A26A4FF0FF3300F4403103EB5202FD
:100EF000B1EB024F06D194F82C1000F07060B0EB0B
:100F0000016F01D00120D1E70020CFE70438024073
:100F100000004742800E4742007000400000FFFF83
:100F200070B5040002D0607F10B106E0012070BDF2
:100F300000202077204600F049F8022060772168E1
:100F4000CA204862216853204862204600F03AFBDC
:100F5000FF25042618BB206881681B4A1140816068
:100F60002168886862681043D4E904231A43104357
:100F700088602168E068086120680169228941EA87
:100F8000024101612068C16821F08001C1602068D0
:100F90008068800607D4204600F00EF918B120685A
:100FA00045626677C2E72068016C21F48021016404
:100FB0002068016CA2691143016420684562012028
:100FC0006077002070BD0000BFFF8FFF1FB50021BC
:100FD00000910191029103910068084988420CD167
:100FE00002200090000203906846FFF779FC08B1E8
:100FF000FFF78DFA0249012008601FBD002800405C
:101000003C0E47422DE9F0470446007F0B4601287D
:101010001FD04FF0010984F81C9002206077DAB1EC
:101020009878D97840EA014558781978000240EA62
:10103000413005432168CA20486221685320486234
:10104000204600F0BFFA0026FF274FF0040860BBDF
:101050001AE00220BDE8F0875878C10603D500F0F9
:10106000EF000A305870D87800F0A1FA02045878DE
:1010700000F09DFA42EA0022987800F098FA0243C4
:10108000187842EA4035D5E70F48054020684560AA
:101090002068C16821F08001C160206880688006F6
:1010A0000AD4204600F088F830B12068476284F8FE
:1010B0001D8026770120CDE72068476284F81D90C7
:1010C00026770020C6E700003FFFFF002DE9F0472C
:1010D0000446007F0D46012827D04FF0010A84F80E
:1010E0001CA0022060772068002680684FEA4060DC
:1010F000F2B1002800DBEE70A878297840EA0147B9
:101100006878E978000240EA014007432168CA2074
:101110004862216853204862204600F053FA4FF09D
:10112000FF084FF00409A0BB16E00220BDE8F087DD
:10113000002800DBEE70287800F039FA02046878A5
:1011400000F035FA42EA0022A87800F030FA0243B3
:10115000E87842EA0047D9E7164807402068076068
:101160002068816821F480218160D5E9030108436A
:1011700021688A68104388602068C16821F0800176
:10118000C1602068806880060BD4204600F014F807
:1011900038B12168C1F8248084F81D902677012099
:1011A000C4E72168C1F8248084F81DA026770020B8
:1011B000BCE700007F7F7F0070B504460068C1680F
:1011C00021F0A001C160FFF7EBFA05464FF47A76F3
:1011D00007E000BFFFF7E4FA401BB04201D903204B
:1011E00070BD2068C0688006F4D5002070BD10B5C1
:1011F000401EB0F1807F01D3012010BD4FF0E024EC
:1012000060610F21601700F046FA0020A0610720FE
:101210002061002010BDFEE72DE9F04387B01421C6
:101220006846FFF7D3F835480024016841F0010112
:101230000160016801F001010591016841F00201BE
:101240000160016801F002010591016841F00401AB
:10125000016000682A4F00F004004EF2B0050590CE
:10126000002229463846FFF796FADFF898803E15A7
:10127000002231464046FFF78EFADFF88C900022BC
:1012800008214846FFF787FA00950125CDE901546A
:10129000694638460394FFF781F94CF2C00000908C
:1012A0004FF4881001900220029069464846FFF7EB
:1012B00075F90096CDE90154694640460394FFF75D
:1012C0006DF908200090CDE9015469464846039421
:1012D000FFF764F9002211461720FFF7CFFA172015
:1012E000FFF7BEFA002211462820FFF7C7FA282090
:1012F000FFF7B6FA07B0BDE8F083000030380240CF
:1013000000000240000802400004024010B586B010
:1013100014216846FFF75AF81B4800241949059420
:10132000C0E900147F218160FF21C0E903144461FA
:101330008461FFF7F5FD08B172B6FEE78DF8004055
:101340008DF801408DF802400394012269460E4851
:101350000494FFF7BBFE08B172B6FEE701208DF8DA
:1013600014008DF815008DF8160002468DF8174010
:1013700005A90548FFF746FE002801D072B6FEE732
:1013800006B010BD00280040B4000020FEE7FEE7D4
:101390002DE9F047144600F03EF8202C27D37F2C8F
:1013A00025D8DFF850A0A4F12001A4F150000025B9
:1013B00001EB810800EB80070AF1F009502C04D200
:1013C00008F0FF0041191AF801604F2C03D9F8B258
:1013D000411919F80160304600F0CEF86D1CEDB2ED
:1013E000052DEBD3BDE8F047002000F0C5B8BDE8FF
:1013F000F0870000321A000870B50021084600F09E
:101400000AF800244FF4FC75002000F0B5F8641CC5
:10141000AC42F9DB70BD10B500F007000C4640F09F
:10142000400000F08FF844F08000BDE8104000F06C
:1014300089B8000070B5FFF741F81F4C01229103F5
:101440002046FFF7A8F9012210212046FFF7A3F953
:10145000C820FFF71FF84FF4005500222946204608
:10146000FFF799F90A20FFF755F80122294620468F
:10147000FFF791F9212000F065F8C82000F062F82C
:10148000132000F05FF8202000F05CF8092000F045
:1014900059F83220FFF73EF8FFF7AEFF0A20FFF7BA
:1014A00039F8082000F04EF80A20FFF733F8BDE8BD
:1014B00070400C2000F046B80000024070B516469F
:1014C0000C46050001D0451EEDB20CB14C1EE4B235
:1014D00021462846FFF79FFF04EB44004006040E18
:1014E00006E021462846761CFFF752FFA41DE4B211
:1014F0003278002AF5D170BD70B5114E054608242A
:10150000002220213046FFF746F90220FEF7C2FFF5
:10151000280601D4002200E0012280213046FFF796
:101520003AF9012220213046FFF735F90220FEF773
:10153000B1FF6806050E641E14F0FF04E0D170BD13
:101540000000024070B50B4C054600224FF480416C
:101550002046FFF720F9002210212046FFF71BF953
:101560002846FFF7C9FF2046BDE870400122102140
:10157000FFF711B90000024070B50B4C054601227F
:1015800091032046FFF707F9002210212046FFF7BC
:1015900002F92846FFF7B0FF2046BDE8704001225F
:1015A0001021FFF7F8B8000000000240704700214A
:1015B00002E00A38C0B2491C0A28FAD2090740EAF8
:1015C0001160704770B504460068C168490614D4BC
:1015D0004FF0FF31C160FFF7E3F805464FF47A762C
:1015E00007E000BFFFF7DCF8401BB04201D9032041
:1015F00070BD2068C0684006F4D5002070BD7047FB
:10160000FFF7D4B810B592B030216846FEF7DEFE81
:1016100014210CA8FEF7DAFE18480024016841F0F6
:1016200080510160006800F08050119014480168FA
:1016300041F4804101600068102100F48040119065
:101640000A2000900120CDE90301CDE90504684698
:10165000FFF7B0FA08B172B6FEE70F20CDE90C042F
:101660000E940F9400210CA81094FFF7D7F90028CE
:1016700001D072B6FEE712B010BD00004038024043
:10168000007000400248016841F470010160704739
:1016900088ED00E0FEE70907090E002804DB00F1F1
:1016A000E02080F80014704700F00F0000F1E02007
:1016B00080F8141D7047000010B5FEF7B7FD0C212F
:1016C00090FBF1F201FB1200064C801C6070FEF7EB
:1016D000ADFDC11700EB917121F00301401A801C90
:1016E000A07010BD0000002010B501210FA2084617
:1016F000FFF7E4FE11A201210220FFF7DFFE0FA297
:1017000001210320FFF7DAFE0CA201210420FFF7DC
:10171000D5FE0AA201210520FFF7D0FE0121BDE878
:10172000104002A20620FFF7C9BE00002A2A2A2A7A
:101730002A2A2A2A2A2A2A2A2A2A00002A2020207B
:101740002020202020202020202A0000FFF736F82B
:10175000FFF758FFFFF760FDFFF7D8FDFFF76AFEC0
:10176000744D042068700520A8700120287000F0D6
:10177000F1F8FFF7A1FF704C002600BFFFF7B4FFA0
:1017800000F0DEF8207830B1012823D0022841D0C3
:1017900003285FD079E0667113E0B8B100EB400137
:1017A000294411F8022DCA704A780A7100EB4000F2
:1017B000284462A241788078FFF780FE6079401C5F
:1017C0006071607921798842E7D35EE0A978491E8B
:1017D000A970EBE7667114E0C0B100EB4001294449
:1017E00011F8022DCA704A7881F8042000EB4000FD
:1017F000284452A241788078FFF760FE6079401C4F
:101800006071607921798842E6D33EE0A978491C6D
:10181000A970EBE7667114E0C0B100EB4001294408
:1018200011F8022DCA704A7881F8042000EB4000BC
:10183000284442A241788078FFF740FE6079401C3E
:101840006071607921798842E6D31EE06978491E8B
:101850006970EBE7667114E0B0B300EB4001294416
:1018600011F8022DCA704A7881F8042000EB40007C
:10187000284432A241788078FFF720FE6079401C2E
:101880006071607921798842E6D3A0684FF47A715B
:10189000A0EB001000EB800001EB8000FEF73AFEA9
:1018A000FFF7AAFD6878617888427FF467AFA8786F
:1018B000A1788842F9D1207858B1012813D00228A4
:1018C0001CD0032825D02FE0FFE76978491C6970F8
:1018D000CCE7207900EB4000284410F8021DC170CD
:1018E0004178491C08E0207900EB4000284410F8BA
:1018F000021DC1704178491E017115E0207900EB8D
:101900004000284410F8011C817010F8021D491C89
:1019100009E0207900EB4000284410F8011C817098
:1019200010F8021D491EC1702079401C2071FFF77C
:10193000C3FE23E71C000020000000203000000050
:10194000034802A241788078FFF7B8BD2B00000061
:101950000000002070B520A204210120FFF7AEFD99
:1019600020A204210220FFF7A9FD4FF4FA60FEF740
:10197000D1FDFFF741FD1EA202210120FFF79EFDD0
:101980001FA202210320FFF799FD20A202210420BB
:10199000FFF794FD20A202210520FFF78FFD4FF4F1
:1019A0008045204C6E0029462046FEF7EFFE0028B9
:1019B00011D131462046FEF7E9FE00280BD1402127
:1019C0002046FEF7E3FE002805D180212046FEF7E1
:1019D000DDFE0028E7D070BD534E414B4527393717
:1019E00000000000414242202620454B000000003C
:1019F0005A6F726C756B20536563696E000000004E
:101A00004B6F6C6179204173616769005A6F722076
:101A10002059756B617269004F727461202020201B
:101A2000536F6C00000402404FF04070E1EE100A6A
:101A30007047000000000000005F00000007000782
:101A400000147F147F14242A7F2A1223130864624F
:101A500036495522500005030000001C22410000B9
:101A600041221C0014083E081408083E08080050D3
:101A70003000000808080808006060000020100816
:101A800004023E5149453E00427F400042615149B7
:101A9000462141454B311814127F102745454539E1
:101AA0003C4A49493001710905033649494936061E
:101AB0004949291E00363600000056360000081439
:101AC000224100141414141400412214080201517C
:101AD0000906324979413E7E1111117E7F494949FB
:101AE000363E414141227F4141221C7F49494941C3
:101AF0007F090909013E4149497A7F0808087F00AA
:101B0000417F41002040413F017F081422417F4036
:101B10004040407F020C027F7F0408107F3E41411D
:101B2000413E7F090909063E4151215E7F0919297D
:101B300046464949493101017F01013F4040403F4C
:101B40001F2040201F3F4038403F631408146307A4
:101B5000087008076151494543007F414100020474
:101B60000810200041417F0004020102044040406F
:101B70004040000102040020545454787F484444FB
:101B8000383844444420384444487F385454541826
:101B9000087E0901020C5252523E7F08040478006C
:101BA000447D40002040443D007F10284400004117
:101BB0007F40007C041804787C080404783844448E
:101BC00044387C14141408081414187C7C08040489
:101BD000084854545420043F4440203C4040207C5A
:101BE0001C2040201C3C4030403C44281028440C21
:101BF0005050503C4464544C4400083641000000AE
:101C00007F0000004136080010080810087846419F
:101C100046780000000000000000000102030406F6
:101C200007080900441C0008000000201C000000F8
:101C3000C4010008601C00081C000020FC07000014
:101C4000E00100080008030001000000000000009F
:101C50000100000010000000000000000024F4005B
:040000050800018965
:00000001FF
