:020000040800F2
:10000000E808002069020008E71500086F140008DE
:10001000E51500089306000801190008000000001B
:100020000000000000000000000000006B18000845
:10003000E506000800000000051800086D1800081B
:10004000830200088302000883020008830200087C
:10005000830200088302000883020008830200086C
:10006000830200088302000883020008830200085C
:10007000830200088302000883020008830200084C
:10008000830200088302000883020008830200083C
:10009000830200088302000883020008FD060008AE
:1000A000830200088302000883020008830200081C
:1000B000830200088302000883020008830200080C
:1000C00083020008830200088302000883020008FC
:1000D00083020008830200088302000883020008EC
:1000E000E706000883020008830200088302000874
:1000F00083020008830200088302000883020008CC
:1001000083020008830200088302000883020008BB
:1001100083020008830200088302000883020008AB
:10012000830200088302000883020008830200089B
:1001300083020008000000000000000083020008A5
:10014000830200088302000883020008830200087B
:10015000830200088302000883020008830200086B
:10016000830200088302000883020008830200085B
:1001700083020008830200080000000083020008D8
:10018000830200088302000800F002F800F043F840
:100190000AA090E8000C82448344AAF10107DA45E2
:1001A00001D100F038F8AFF2090EBAE80F0013F0F1
:1001B000010F18BFFB1A43F001031847A01F0000EE
:1001C000C01F0000103A24BF78C878C1FAD852077F
:1001D00024BF30C830C144BF04680C6070470000C1
:1001E0000023002400250026103A28BF78C1FBD840
:1001F000520728BF30C148BF0B607047642900F028
:100200001381002070471FB501F0AAFE00F05DF9D0
:100210001FBD10B510BD00F002FA1146FFF7F3FF45
:1002200001F0DCFB00F020FA03B4FFF7F2FF03BC9F
:1002300000F028FA0B49D1F800C04A685CF8043B8A
:100240001068184442F8040B8C4528BFA1F1DC0C5F
:100250008A4228BFA1F1DC02C1F800C04A6020F048
:10026000004070477C020020094880470948004749
:10027000FEE7FEE7FEE7FEE7FEE7FEE7FEE7FEE756
:10028000FEE7FEE704480549054A064B70470000B3
:10029000F118000889010008E8020020E8080020A1
:1002A000E8040020E804002053EA020C00F0698012
:1002B0002DE9F04B4FF00006002B1FBFB3FA83F57A
:1002C00003FA05F424FA05F65E4012BF1643B2FAAB
:1002D00082F502FA05F4C5F120051EBF22FA05FCDD
:1002E00044EA0C04203556EA044C4FEA144418BF83
:1002F000641C4FF000084FF00009904271EB030CB2
:1003000039D3002919BFB1FA81F701FA07F6B0FA1B
:1003100080F700FA07F6C7F120071EBF20FA07FC96
:1003200046EA0C062037B6FBF4FCA7EB0507103FA6
:1003300007F01F0BCBF120060CFA0BFB2CFA06F68C
:1003400044BFB3460026202FA4BF5E464FF0000BEB
:100350005BEA060C08BF4FF0010B19EB0B09ABFB76
:10036000027C48EB0608C01B06FB02CC0BFB03CC4F
:1003700071EB0C01C1E70B46024641464846BDE819
:10038000F08B13B54FF000004FF00001AFF3008089
:10039000BDE81C40704700000FB41CB5074B06AA0F
:1003A0007B4469460090059800F021F900206946D9
:1003B00000F030F91CBC5DF814FB00007102000075
:1003C0002DE9F0410E460446002020622046E168F7
:1003D000884730B3252805D0D4E901219047206A09
:1003E000401CF2E7E168204600278847050018D046
:1003F000A5F14100192802D820354FF40067324694
:10040000294620462760FFF7F9FE40B1012804D0B5
:10041000F61D26F007060836D8E7361DD6E728462B
:10042000DAE7206ABDE8F0812DE9F04106460024B4
:1004300010687529314616A510D0AFF3008000284A
:1004400002DA404213A507E031688A0701D512A5F8
:1004500002E0490704D511A5012401E0AFF30080B3
:1004600000210A2206F1240709E0B0FBF2FCB0FBF0
:10047000F2F302FB1C00303078541846491C002867
:10048000F3D123462A463046BDE8F04100F050B88B
:10049000000000002D0000002B00000020000000E4
:1004A0000B4910B5A1F17C020A4CC2E93712372181
:1004B00006E000EB104342F82130074B00FB0340FD
:1004C0000B1EA1F10101F4DC10BD0120E8E70000E2
:1004D0001C020020E119D666CD0D01004FF000028C
:1004E00000B5134694469646203922BFA0E80C502A
:1004F000A0E80C50B1F12001BFF4F7AF090728BF05
:10050000A0E80C5048BF0CC05DF804EB890028BF80
:1005100040F8042B08BF704748BF20F8022B11F0A9
:10052000804F18BF00F8012B704770477047704725
:100530002DE9F0470D4699469246044600F12408FD
:100540000168880604D5E06921F01001216000E00F
:100550000120A84201DD471B00E00027A1697A19AC
:1005600002EB0900081AA0612078C00602D42046D8
:10057000AFF30080002608E0D4E901211AF8060054
:100580009047206A401C761C20624E45F4DB2078A0
:10059000C0060AD52046AFF3008006E0D4E9012169
:1005A00030209047206A401C2062381EA7F10107C6
:1005B000F4DC07E0D4E9012118F805009047206A2F
:1005C000401C2062281EA5F10105F3DC2046AFF394
:1005D00000802078000602D50220BDE8F0870120C7
:1005E000FBE7000001694A1C02610878704700B50A
:1005F0008FB0CDE901310021059105497944CDE95C
:10060000031011466846FFF7DBFE0FB000BD000087
:10061000E5FFFFFF0A6802F8010B0A6070477546A4
:1006200000F02CF8AE4605006946534620F007005E
:10063000854618B020B5FFF725FEBDE820404FF0F5
:1006400000064FF000074FF000084FF0000B21F0BC
:100650000701AC46ACE8C009ACE8C009ACE8C00989
:10066000ACE8C0098D46704710B50446AFF3008072
:100670002046BDE81040FFF7D7BD00000048704796
:100680008402002001491820ABBEFEE726000200CC
:100690007047FEE7064A10B553680649064C0968DC
:1006A000B1FBF4F141435068C01A8842FBD310BD3E
:1006B000001000E02C00002040420F0007480168B5
:1006C000C9010AD4016841F0807101600448002129
:1006D0004160016841F0010101607047FCED00E0FC
:1006E000001000E0704710B54FF4804000F04AF869
:1006F000BDE810404FF4004000F044B810B5402071
:1007000000F040F8BDE81040802000F03BB872B621
:10071000FEE7000070B5044600F042F90546601C93
:1007200002D004480078044400F03AF9401BA0428B
:10073000FAD370BD2000002030B5114903250023F5
:10074000CC780122B0F5804F0CD0B0F5004F0ED020
:10075000402813D0802810D102200870002C0CD122
:10076000886008E00B70002C07D18D6003E00A70F0
:10077000002C02D18A600B70CA7030BD0D7030BD84
:1007800000000020044910B50A68024202D0086047
:10079000FFF7D2FF10BD0000143C01402DE9F84FD7
:1007A000DFF8BCA1002201250AF1040B03264FF05B
:1007B0000F090BF1040E00BF0B6805FA02F4234089
:1007C000A34270D10F7907F00307012F01D0022F48
:1007D00016D187684FEA420806FA08FC27EA0C0798
:1007E000D1F80CC00CFA08FC4CEA070CC0F808C0A1
:1007F0004768A7430C79C4F3001494403C43446019
:100800000C79E443A4070AD0C4684FEA420C06FA04
:100810000CF7BC438F6807FA0CF72743C7600C79C5
:1008200004F00304022C12D1D40800EB840CDCF891
:1008300020405707FF0E09FA07F824EA0804D1F808
:10084000108008FA07F848EA0408CCF82080046809
:100850004FEA420C06FA0CF7BC430F7907F0030786
:1008600007FA0CF7274307604C6814F4403F70D038
:100870003C4C276847F480472760246822F0030730
:1008800004F480440094384C07EB040CDCF808486E
:1008900097074FEA177809FA08F7BC43334FB84275
:1008A00002D1002724E054E0314FB84201D10127A2
:1008B0001EE0304FB84201D1022719E02E4FB84256
:1008C00001D1032714E02D4FB84201D104270FE0D6
:1008D0002B4FB84201D105270AE02A4FB84201D177
:1008E000062705E0284FB84201D1072700E0082776
:1008F00007FA08F72743CCF80878DAF8004057469B
:10090000D1F804C09C435FEACC3C00D51C433C605A
:10091000DBF800405F46D1F804C09C435FEA8C3CA2
:1009200000D51C433C60DEF800407746D1F804C097
:100930009C435FEACC2C00D51C433C60084F0C372D
:100940003C68D1F804C09C435FEA8C2C00D51C4362
:100950003C60521C102AFFF42FAFBDE8F88F000056
:10096000003C014044380240003001400000024099
:100970000004024000080240000C02400010024047
:100980000014024000180240001C024000690840A8
:1009900000D0012070470AB1816170470904FBE76C
:1009A00001488068704700002000002002488168EC
:1009B0000278114481607047200000200B4810B578
:1009C000016841F400710160016841F480610160D7
:1009D000016841F480710160032000F06FF80F207E
:1009E00000F006F800F024F8002010BD003C0240A2
:1009F00070B50D4D04464FF47A712878B1FBF0F0D4
:100A00000A490968B1FBF0F000F01DFD48B9102C4F
:100A100007D200222146501E00F030F800206C6002
:100A200070BD012070BD0000200000202C000020BF
:100A30000A4808B5016841F480410160006800F48B
:100A4000804000900548001F016841F0805101601E
:100A5000006800F08050009008BD0000443802405B
:100A6000002809DB00F01F020121914040098000AD
:100A700000F1E020C0F8001170470000F0B40E4B08
:100A80001B680C46C3F30223C3F10705042D00D9EC
:100A90000425191D072901D2002300E0DB1E0126D1
:100AA00006FA05F1491E214099409E40761E1640E7
:100AB0003143F0BC00F025BF0CED00E0064900F02A
:100AC000070208684FF6FF03184040EA0220034A75
:100AD00010430860704700000CED00E00000FA05CC
:100AE0002DE9F843054600684FF00109C1074FF0B2
:100AF000000601D1400727D5DFF80C81C8F86860EF
:100B0000FFF74EFF0746414C05E000BFFFF748FFE7
:100B1000C01B022857D820680001F7D468688101FB
:100B2000287A41EA0070394984310860C8F8689031
:100B3000FFF736FF074604E0FFF732FFC01B02282D
:100B400041D820680001F7D52878800752D52F4872
:100B50004030016841F08051016000682C4C00F089
:100B600080500090206840F480702060FFF718FFEC
:100B7000074604E0FFF714FFC01B022823D82068B3
:100B8000C005F7D5214C7034206810F4407020D097
:100B9000A98901F4407181421BD020681D4920F4CD
:100BA0004070C1F800900E6020602068C00710D02F
:100BB000FFF7F6FE064641F2883707E0FFF7F0FE42
:100BC000801BB84202D90320BDE8F8832068800763
:100BD000F4D5E9680D48C1F301220830032A0BD08F
:100BE000016821F4F81101602068A989C1F30B01A3
:100BF000084320600020E7E70268074B22F4F81260
:100C000019400A430260EFE7000047420038024003
:100C100000700040400E4742FFFCFF0F2DE9F047F7
:100C20000E46050065D0DFF81481D8F80000F7B251
:100C300000F00700B04207D288F80070D8F8000032
:100C400000F00700B04254D128683D4C810712D50E
:100C5000400703D5206840F4E05020602878000762
:100C600003D5206840F4604020602068A96820F027
:100C7000F000084320602878C0072DD0304968680C
:100C80000839012812D0022813D0032811D009688E
:100C9000890700292DDA216821F003010143216031
:100CA000FFF77EFE814641F2883A0EE0096889032B
:100CB000EFE709688901ECE7FFF772FEA0EB090195
:100CC000514502D90320BDE8F0872068696800F02B
:100CD0000C00B0EB810FEFD1D8F80010404601F0C6
:100CE0000701B14207D90770006800F00700B04261
:100CF00001D00120E7E72878400705D52068E9689A
:100D000020F4E050084320602878000706D52068CA
:100D1000296920F4604040EAC100206000F018F822
:100D20002168084AC1F30311515CC84006490860B4
:100D300006480068FFF75CFE0020C4E7003C024064
:100D4000083802404B2100082C000020240000201D
:100D5000154810B5006810F00C02144813D014495F
:100D6000042A0FD0082A0ED10F4C241F22682368B2
:100D700002F03F025B0207D52068C0F38810A0FB99
:100D8000010106E0084610BD2168C1F38811A1FBEE
:100D900000010023FFF788FA2168C1F30141491CD3
:100DA0004900B0FBF1F010BD083802400024F40007
:100DB00040787D012DE9F84F04006ED02078DFF8EF
:100DC0004C93C007A9F104054AD009F10400016859
:100DD000C1F38101012908D00068C0F38100022815
:100DE0000AD1D9F80000400206D52868800337D51B
:100DF00060680028E1D033E06068B0F5803F10D033
:100E0000B0F5A02F286810D020F480302860286822
:100E100020F4802028606068A8B1FFF7C1FD064675
:100E20000DE0286840F48030F4E740F4802028602A
:100E3000F7E700BFFFF7B4FD801B642873D828686C
:100E40008003F7D50CE0FFF7ABFD064605E000BFD9
:100E5000FFF7A6FD801B6428F0D828688003F7D42C
:100E60002078DFF8AC8280074FF0000A3ED5A74813
:100E7000001D016811F00C0F08D00068C0F381005C
:100E800002280BD1D9F80000400207D42868800757
:100E900016D5E068012800D112E033E1E068B8B16E
:100EA0000120C8F80000FFF77BFD064605E000BF03
:100EB000FFF776FD801B0228C0D828688007F7D589
:100EC0002868216920F0F80040EAC10028600DE0A0
:100ED000C8F800A0FFF764FD064604E0FFF760FDD8
:100EE000801B02281FD828688007F7D420780007C5
:100EF00022D5864F87486169703771B10121016041
:100F0000FFF74EFD064604E0FFF74AFD801B02286E
:100F100009D838688007F7D50EE0C0F800A0FFF7C1
:100F20003FFD064605E082E0FFF73AFD801B022800
:100F30007DD838688007F7D42078400768D5DFF877
:100F4000CCB100270BF13C0BDBF80000C0000BD448
:100F5000DBF8001041F08051CBF80010DBF8000006
:100F6000012700F0805000906B4E3068C00510D40F
:100F7000306840F480703060FFF712FD009005E0AB
:100F8000FFF70EFD0099401A022850D83068C005BE
:100F9000F6D55E4EA0686C3601280FD00528306863
:100FA00010D020F001003060306820F00400306084
:100FB000A068B8B1FFF7F4FC00900FE0306840F093
:100FC0000100F4E740F004003060F7E7FFF7E8FCC9
:100FD0000099411A41F28830814266D83068800712
:100FE000F4D50EE0FFF7DCFC009007E0FFF7D8FC3B
:100FF0000099411A41F28830814256D83068800702
:10100000F4D42FB1DBF8001021F08051CBF80010A0
:10101000A069C8B33D49091D0968C1F381010229CE
:101020004AD00228504607D0C8F8600000E03CE0F3
:10103000FFF7B6FC04463BE04746C8F86000FFF700
:10104000AFFC064605E000BFFFF7AAFC801B0228A4
:101050002BD828688001F7D4D4E907010843A16A96
:101060002E4A490802EB0141626A41EA82110843B3
:1010700094F82C1040EA0161C9F80010012038668C
:10108000FFF78EFC044606E03EE000BFFFF788FC59
:10109000001B022809D828688001F7D534E000BF7A
:1010A000FFF77EFC001B022802D90320BDE8F88F61
:1010B00028688001F4D427E00128F7D0D9F800008F
:1010C000E26900F4800191421CD1226A00F03F01E4
:1010D000914217D147F6C071626A0140B1EB821F9D
:1010E00010D1A26A4FF0FF3300F4403103EB5202FB
:1010F000B1EB024F06D194F82C1000F07060B0EB09
:10110000016F01D00120D1E70020CFE70438024071
:1011100000004742800E4742007000400000FFFF81
:1011200010B50B460168896A596001680969C1F305
:101130000E019960006801680E480140C1F3054046
:101140001870C1F306245C7001F07F049C70402489
:1011500004EA1141D97052B900F055FB1870587863
:1011600000F051FB5870987800F04DFB987000200B
:1011700010BD00007F7F7F0070B5040002D0607F4B
:1011800010B106E0012070BD00202077204600F05D
:1011900049F8022060772168CA20486221685320FC
:1011A0004862204600F044FBFF25042618BB206857
:1011B00081681B4A11408160216888686268104319
:1011C000D4E904231A43104388602168E068086169
:1011D00020680169228941EA024101612068C168F1
:1011E00021F08001C16020688068800607D4204615
:1011F00000F00EF918B1206845626677C2E72068F2
:10120000016C21F4802101642068016CA269114302
:1012100001642068456201206077002070BD0000F5
:10122000BFFF8FFF1FB50021009101910291039133
:101230000068084988420CD1022000900002039007
:101240006846FFF74DFC08B1FFF761FA024901203B
:1012500008601FBD002800403C0E47422DE9F047C2
:101260000446007F0B4601281FD04FF0010984F887
:101270001C9002206077DAB19878D97840EA01456D
:1012800058781978000240EA413005432168CA20A5
:101290004862216853204862204600F0C9FA0026BF
:1012A000FF274FF0040860BB1AE00220BDE8F0877A
:1012B0005878C10603D500F0EF000A305870D8788E
:1012C00000F0AAFA0204587800F0A6FA42EA0022D6
:1012D000987800F0A1FA0243187842EA4035D5E741
:1012E0000F480540206845602068C16821F08001F2
:1012F000C1602068806880060AD4204600F088F823
:1013000030B12068476284F81D8026770120CDE740
:101310002068476284F81D9026770020C6E7000009
:101320003FFFFF002DE9F0470446007F0D460128EE
:1013300027D04FF0010A84F81CA0022060772068B3
:10134000002680684FEA4060F2B1002800DBEE70B2
:10135000A878297840EA01476878E978000240EAED
:10136000014007432168CA2048622168532048622F
:10137000204600F05DFA4FF0FF084FF00409A0BBD3
:1013800016E00220BDE8F087002800DBEE70287828
:1013900000F042FA0204687800F03EFA42EA0022C5
:1013A000A87800F039FA0243E87842EA0047D9E722
:1013B00016480740206807602068816821F4802172
:1013C0008160D5E90301084321688A681043886079
:1013D0002068C16821F08001C160206880688006B3
:1013E0000BD4204600F014F838B12168C1F82480ED
:1013F00084F81D9026770120C4E72168C1F8248075
:1014000084F81DA026770020BCE700007F7F7F00C6
:1014100070B504460068C16821F0A001C160FFF703
:10142000BFFA05464FF47A7607E000BFFFF7B8FA37
:10143000401BB04201D9032070BD2068C0688006FF
:10144000F4D5002070BD10B5401EB0F1807F01D3EF
:10145000012010BD4FF0E02460610F21601700F003
:1014600050FA0020A06107202061002010BDFEE797
:101470002DE9F04387B014216846FFF72FF835486F
:101480000024016841F001010160016801F00101DF
:101490000591016841F002010160016801F002015B
:1014A0000591016841F00401016000682A4F00F0D5
:1014B00004004EF2B0050590002229463846FFF799
:1014C0006AFADFF898803E15002231464046FFF761
:1014D00062FADFF88C90002208214846FFF75BFA99
:1014E00000950125CDE90154694638460394FFF77C
:1014F00055F94CF2C00000904FF488100190022082
:10150000029069464846FFF749F90096CDE9015433
:10151000694640460394FFF741F908200090CDE961
:101520000154694648460394FFF738F900221146F2
:101530001720FFF7A3FA1720FFF792FA00221146AF
:101540002820FFF79BFA2820FFF78AFA07B0BDE8AA
:10155000F0830000303802400000024000080240E2
:101560000004024010B586B014216846FEF7B6FFAD
:101570001B48002419490594C0E900147F218160AB
:10158000FF21C0E9031444618461FFF7F5FD08B150
:1015900072B6FEE78DF800408DF801408DF80240EC
:1015A0000394012269460E480494FFF7BBFE08B17C
:1015B00072B6FEE701208DF814008DF815008DF845
:1015C000160002468DF8174005A90548FFF746FEAC
:1015D000002801D072B6FEE706B010BD002800401A
:1015E0006C010020FEE7FEE72DE9F047144600F00D
:1015F0003EF8202C27D37F2C25D8DFF850A0A4F16B
:101600002001A4F15000002501EB810800EB8007C8
:101610000AF1F009502C04D208F0FF0041191AF821
:1016200001604F2C03D9F8B2411919F80160304616
:1016300000F0CEF86D1CEDB2052DEBD3BDE8F04700
:10164000002000F0C5B8BDE8F08700006A1F000860
:1016500070B50021084600F00AF800244FF4FC752C
:10166000002000F0B5F8641CAC42F9DB70BD10B589
:1016700000F007000C4640F0400000F08FF844F006
:101680008000BDE8104000F089B8000070B5FFF799
:1016900015F81F4C012291032046FFF77CF9012227
:1016A00010212046FFF777F9C820FEF7F3FF4FF42B
:1016B0000055002229462046FFF76DF90A20FFF762
:1016C00029F8012229462046FFF765F9212000F07C
:1016D00065F8C82000F062F8132000F05FF82020C1
:1016E00000F05CF8092000F059F83220FFF712F8FA
:1016F000FFF7AEFF0A20FFF70DF8082000F04EF8C4
:101700000A20FFF707F8BDE870400C2000F046B84B
:101710000000024070B516460C46050001D0451E7B
:10172000EDB20CB14C1EE4B221462846FFF79FFFF4
:1017300004EB44004006040E06E021462846761CD1
:10174000FFF752FFA41DE4B23278002AF5D170BD34
:1017500070B5114E05460824002220213046FFF7BF
:101760001AF90220FEF796FF280601D4002200E0B5
:10177000012280213046FFF70EF901222021304658
:10178000FFF709F90220FEF785FF6806050E641EC3
:1017900014F0FF04E0D170BD0000024070B50B4CA6
:1017A000054600224FF480412046FFF7F4F800225E
:1017B00010212046FFF7EFF82846FFF7C9FF204623
:1017C000BDE8704001221021FFF7E5B8000002409B
:1017D00070B50B4C0546012291032046FFF7DBF85C
:1017E000002210212046FFF7D6F82846FFF7B0FF69
:1017F0002046BDE8704001221021FFF7CCB8000060
:10180000000002407047010901EB810100F00F0068
:1018100000EB4100C0B27047002102E00A38C0B2BC
:10182000491C0A28FAD2090740EA116070470000F3
:1018300070B504460068C168490614D44FF0FF3102
:10184000C160FFF7ADF805464FF47A7607E000BFB8
:10185000FFF7A6F8401BB04201D9032070BD2068F5
:10186000C0684006F4D5002070BD7047FFF79EB8F1
:1018700010B592B030216846FEF730FE14210CA856
:10188000FEF72CFE18480024016841F080510160E9
:10189000006800F0805011901448016841F48041C4
:1018A00001600068102100F4804011900A2000902F
:1018B0000120CDE90301CDE905046846FFF77AFA76
:1018C00008B172B6FEE70F20CDE90C040E940F9418
:1018D00000210CA81094FFF7A1F9002801D072B6DE
:1018E000FEE712B010BD000040380240007000401A
:1018F0000248016841F470010160704788ED00E022
:10190000FEE70907090E002804DB00F1E02080F85B
:101910000014704700F00F0000F1E02080F8141D63
:101920007047000007494878012808D089780129C4
:1019300005D00E2803D0062901D0002070470120D1
:10194000704700003000002010B5FEF773FC0C213A
:1019500090FBF1F201FB1200064C801C6070FEF758
:1019600069FCC11700EB917121F00301401A801C42
:10197000A07010BD0000002010B501210FA2084684
:10198000FFF7C8FE11A201210220FFF7C3FE0FA23C
:1019900001210320FFF7BEFE0CA201210420FFF766
:1019A000B9FE0AA201210520FFF7B4FE0121BDE81E
:1019B000104002A20620FFF7ADBE00002A2A2A2A04
:1019C0002A2A2A2A2A2A2A2A2A2A00002A202020E9
:1019D0002020202020202020202A00002DE9F84F60
:1019E000FEF7ECFFFFF744FFFFF742FDFFF7BAFDFC
:1019F000FFF74CFE01229102F648FEF7CCFFDFF81C
:101A0000D883042188F80110052188F802100121EB
:101A100088F8001000F02AFAFFF796FF08F1960503
:101A20004FF00009ED4CEE1CA5F1930700F0FCF916
:101A300018B9FFF777FF002862D0FFF709FEE748E3
:101A40002279E7A11830FEF7A7FCE74900252A46CE
:101A5000A1F12000FFF764FBE348E2888178891A4E
:101A6000891EE16043782361027862610091DFA101
:101A70003038FEF791FC40F2EE2A4F464646677139
:101A80000BE000BF00EB40003044DCA241788078DE
:101A9000FFF740FE6079401C6071607921798842CF
:101AA000F0D35046FEF736FEFFF7D2FD5046FEF764
:101AB00031FE6D1CEDB2032DE1D3D1A20221032032
:101AC000FFF728FE4FF4FA642046FEF723FEFFF7E7
:101AD000BFFDCEA202210320FFF71CFEBF4A082152
:101AE00018320320FFF716FEBF4A0121303A0520C5
:101AF000FFF710FE2046FEF70DFE0020BDE8F88F30
:101B0000FFF73AFF00F086F9207830B1012844D081
:101B1000022875D0032874D0EBE0484684F805907D
:101B20001FE018B301282BD00FD988420DD200EB4B
:101B3000400303EB08012B444A785A708A789A7064
:101B400013F8022D4A705A788A7000EB400101EBBD
:101B50000800AAA241788078FFF7DCFD6079401C7C
:101B600060712179C0B28842DBD3C2E098F80120CD
:101B70006A7098F80220AA70521E88F80220E4E7E2
:101B800095490A7996310A71B978B17016F8021C34
:101B9000797016F8011CB970D7E7484684F80590AB
:101BA0001FE018B301282DD00FD988420DD200EBC9
:101BB000400303EB08012B444A785A708A789A70E4
:101BC00013F8022D4A705A788A7000EB400101EB3D
:101BD00008008AA241788078FFF79CFD6079401C5C
:101BE00060712179C0B28842DBD382E098F801208D
:101BF0006A7098F80220AA70521C88F80220E4E764
:101C00000EE04EE07449744A963209791171B97840
:101C1000B17016F8021C797016F8011CB970D4E77F
:101C2000484684F805901FE018B301282BD00FD93F
:101C300088420DD200EB400303EB08012B444A78A5
:101C40005A708A789A7013F8022D4A705A788A70FE
:101C500000EB400101EB080068A241788078FFF7B3
:101C600059FD6079401C60712179C0B28842DBD394
:101C70003FE098F801206A7098F80230AB70521E6D
:101C800088F80120E4E75449534A963209791171E2
:101C9000B978B17016F8021C797016F8011CB97089
:101CA000D6E7484684F805901FE0E8B301284DD0F8
:101CB0000FD988420DD200EB400303EB08012B44FF
:101CC0004A785A708A789A7013F8022D4A705A78B6
:101CD0008A7000EB400101EB080048A2417880784F
:101CE000FFF718FD6079401C60712179C0B288420D
:101CF000DBD3A0684FF47A71A0EB001000EB8000FA
:101D000001EB8000FEF706FDFFF7A2FC98F801103A
:101D10006278404691427FF489AE8178A278914200
:101D2000F9D1217801B300E006E0012927D002298A
:101D300031D003293BD046E098F801206A7098F82A
:101D40000230AB70521C88F80120C2E72249224AB7
:101D5000963209791171B978B17016F8021C797050
:101D600016F8011CB970B4E7217901EB410101EBD0
:101D7000080010F8021DC1704178491C09E0217962
:101D800001EB410101EB080010F8021DC170417820
:101D9000491E017117E0217901EB410101EB0800B7
:101DA00010F8011C817010F8021D491C0AE021790D
:101DB00001EB410101EB080010F8011C817010F8E3
:101DC000021D491EC1702079401C2071FFF7BCFD27
:101DD0002CE6000000080240300000200000002037
:101DE00020256420000000008C01002053757265DE
:101DF0003A2025643A25643A25640000300000004A
:101E00004F79756E2042697474690000536B6F726C
:101E10003A200000034802A241788078FFF77ABC9C
:101E20002A00000000000020F0B50E480379012BC5
:101E300016D9012141710C494C788D780DE000BF15
:101E400002EB42060E447778A74204D1B678AE4240
:101E500001D10120F0BD521C427142799A42EFD368
:101E60000020F0BD00000020300000202DE9F041EE
:101E700026A204210120FFF74DFC27A20421022005
:101E8000FFF748FC4FF4FA60FEF744FCFFF7E0FB75
:101E900024A202210120FFF73DFC26A202210320FB
:101EA000FFF738FC26A202210420FFF733FC27A20B
:101EB00002210520FFF72EFC274C4FF47A76274DA0
:101EC0004FF480474FF4004805E03046FEF722FC0F
:101ED000E888401CE88039462046FEF757FD002878
:101EE00011D141462046FEF751FD00280BD140217B
:101EF0002046FEF74BFD002805D180212046FEF745
:101F000045FD0028E1D0BDE8F0810000534E414B73
:101F10004527393700000000414242202620454B2A
:101F2000000000005A6F726C756B20536563696E18
:101F3000000000004B6F6C6179204173616769009C
:101F40005A6F72202059756B617269004F7274610B
:101F500020202020536F6C0000040240000000206D
:101F60004FF04070E1EE100A7047000000000000E2
:101F7000005F00000007000700147F147F14242A6C
:101F80007F2A122313086462364955225000050344
:101F90000000001C2241000041221C0014083E08E1
:101FA0001408083E08080050300000080808080817
:101FB000006060000020100804023E5149453E00C8
:101FC000427F400042615149462141454B3118143E
:101FD000127F1027454545393C4A4949300171096E
:101FE00005033649494936064949291E0036360057
:101FF0000000563600000814224100141414141472
:1020000000412214080201510906324979413E7EFD
:102010001111117E7F494949363E414141227F419C
:1020200041221C7F494949417F090909013E414933
:10203000497A7F0808087F00417F41002040413FE6
:10204000017F081422417F404040407F020C027F04
:102050007F0408107F3E4141413E7F090909063E49
:102060004151215E7F0919294646494949310101FB
:102070007F01013F4040403F1F2040201F3F40382C
:10208000403F63140814630708700807615149450D
:1020900043007F41410002040810200041417F00BD
:1020A00004020102044040404040000102040020BC
:1020B000545454787F484444383844444420384485
:1020C00044487F3854545418087E0901020C525277
:1020D000523E7F0804047800447D40002040443D87
:1020E000007F1028440000417F40007C04180478E1
:1020F0007C0804047838444444387C1414140808D8
:102100001414187C7C080404084854545420043FD8
:102110004440203C4040207C1C2040201C3C40305F
:10212000403C44281028440C5050503C4464544CCB
:1021300044000836410000007F00000041360800DE
:10214000100808100878464146780000000000009A
:102150000000000102030406070809007C210008B2
:102160000000002030000000C4010008AC2100087D
:1021700030000020B8080000E0010008000803005B
:10218000010000000000000000000000000000004E
:10219000000000000000000000000000010000003E
:0C21A00010000000000000000024F4000B
:040000050800018965
:00000001FF
